:0C0A6F00020A0000020C00000208000057
:100A4F00E4FDFCC3ED9FEC9E5015E4FBFA0BBB00DD
:0F0A5F00010ABA04F8BBFBF50DBD00010C80E4E1
:010A6E002265
:10080000C297C290E50D450C60030208E3209716DD
:10081000E50B450A7010E5094508700A050BE50B64
:100820007062050A805E309712E50B6401450A701C
:100830000AE509640145087002806A209718E50BF3
:100840006401450A7010E5094508700A050BE50BBF
:100850007002050A802E309712E50B6402450A707B
:100860000AE509640145087002803A209724E50BE7
:100870006402450A701CE50945087016050BE50B76
:100880007002050AC2907508007509017F0A7E0092
:100890008044309719E50B6403450A7011E509643B
:1008A0000145087009F508F5097F0AFE80282097A0
:1008B00028E50B6403450A7020E5094508701A0510
:1008C0000BE50B7002050AD290E4F50AF50BF50C66
:1008D000750D017F0AFE120A4F7F647E00120A4FD7
:1008E000020804E50D6401450C600302080420972A
:1008F00016E50B450A7010E5094508700A050BE579
:100900000B7062050A805E309712E50B6401450AA0
:10091000700AE509640145087002806A209718E5AD
:100920000B6401450A7010E5094508700A050BE5DE
:100930000B7002050A802E309712E50B6402450AFF
:10094000700AE509640145087002803A209724E5A1
:100950000B6402450A701CE50945087016050BE595
:100960000B7002050AD2907508007509017F0A7E96
:10097000008043309719E50B6403450A7011E509BF
:10098000640145087009F508F5097F0AFE802720F3
:100990009727E50B6403450A701FE50945087019A0
:1009A000050BE50B7002050AC290E4F50AF50BF59C
:1009B0000CF50D7F0AFE120A4F7F647E00120A4F6B
:0309C00002080426
:030000000209C32F
:0C09C300787FE4F6D8FD758113020A0A63
:1009CF00020800E493A3F8E493A34003F68001F236
:1009DF0008DFF48029E493A3F85407240CC8C33329
:1009EF00C4540F4420C8834004F456800146F6DFF8
:1009FF00E4800B0102040810204080900A6FE47E0F
:100A0F00019360BCA3FF543F30E509541FFEE493EC
:100A1F00A360010ECF54C025E060A840B8E493A3B3
:100A2F00FAE493A3F8E493A3C8C582C8CAC583CADE
:100A3F00F0A3C8C582C8CAC583CADFE9DEE780BE96
:010A7B00007A
:00000001FF
